:020000040000FA
:020000000528D1
:0800080043288B012000910147
:100010009201980101309C00FF309B0020008C0170
:10002000220030308C0023008C012100CF308C0066
:10003000013095006A3099009101911492012400D9
:100040000D308C002C00930127000D3091009200A0
:1000500020000C168C1620308400850180010408D5
:100060007F3C03193528840A2E280B118B168B151B
:1000700095018B175420DA217D202422A422A01E72
:100080003F28A0123A280B1948280B184D280900C0
:100090000B11A0160930950009002700FF30130648
:1000A00093052000BA010900A0102011A011201012
:1000B0002012A30A0A302302031D0800A301A01482
:1000C000A40A0A302402031D0800A4012015A50A71
:1000D00005302502031D0800A501A015A60A02305F
:1000E0002602031D0800A6012014A70A0A302702D1
:1000F000031D0800A70120160800A01C080082307C
:100100008A002908F02A201C080020172300FF304D
:10011000910003309200151315140000000013081D
:10012000FE002000AB00AB0AA90A21100800A118AC
:100130002114A11808002118A928201D0800B80AB8
:100140003808143C031D0800B801A90AAD01AE012E
:10015000080021100530A900B2010800A118BF282D
:100160007E08FF000319C128FF030319CE28FF03EF
:100170000319DC28FF030319E928F7280800A9035D
:1001800008002D08013C031DC728A90A06292E08CE
:10019000013C031D0629A90AA90A06292D08013CCC
:1001A000031DD428A90A06292E08013C031D06298F
:1001B0000130AB00A90006292D08023C031DE228EE
:1001C000A90A06292E08023C031D0629A90AA90A24
:1001D00006292D08023C031DEF28A90A06292E082E
:1001E000023C031D06290130AB00A90006292D0899
:1001F000013C031DFF280130AB00A90006292E0891
:10020000013C031D06290130AB00A900201E080097
:10021000BA0A3A08123C031D0800BA012700FF3051
:100220001306930511151215200063000000080045
:1002300021192C29211A2E29A1182E293008643CB5
:1002400003192E29201D0800300803198C163003CD
:1002500003190C12B00A08000230AB000C168C1601
:10026000B0010130A900080021194829A1194A2923
:10027000A1184A293008643C03194A29201D0800A6
:10028000300803198C12300303190C12B00A08004D
:100290000230AB000C168C16B0010130A90008002A
:1002A0002019B10AA11A5E2931081E3C031D08005D
:1002B000B101B201B8010130A9000800B101B20AD0
:1002C0003208033C031D0800B201B101A90A21173D
:1002D00008002019B10A1E303102031D08007E0AF1
:1002E000AB00A90AB1010800AB08031D08002117E3
:1002F000A90A08002019B10AA11A852931081E3C53
:10030000031D0800A90AB1010800B101B20A0800E2
:10031000320803199229053C031C92293203FE007E
:10032000A90A0800A1170130A900B801B20108000C
:100330008B132300FF309100033092001513151624
:10034000151555309600AA3096009514000000004F
:100350001511FF30910003301513951615157E0801
:1003600093009401951255309600AA30960095148A
:100370000000000015118B1720002117A90A0800A2
:10038000211B08002300FF30910003309200151359
:100390001514000000001308FE002000AB00AB0A9B
:1003A000A90A0800AB08031D080021170130A900A5
:1003B000B8010800201F0800A01C0800B50D35106A
:1003C0008C1D351435080319A110350A0319A11421
:1003D00021000C1DFE292000B60D36100C1D361410
:1003E00036080319A111360A0319A11536087F3CF6
:1003F000031DFE29AE01AD0A0319AD032000B30DA4
:1004000033100C1C3314330803192112330A031957
:10041000211633087F3C031D112AAD01AE0A0319D2
:10042000AE03A1128C1C1A2AB408031DB4030319CD
:1004300021110800143034020319202AB40A0800DC
:10044000211DA11621150800A01C0800AB08031DE2
:100450002E2A211B552AA11B552A080082308A000A
:100460002A08FE2A40307B221430B700AA0A2B0843
:10047000AC000800B70B080096225030B700AA0A5B
:100480000800B70B0800AC0B492A0A30B700AA0ACB
:100490000800AA0340307B221430B7000800B70BD5
:1004A00008009B22AA01AB01080082308A002A08BA
:1004B000032B4030211F3B307B221430B700AA0AA7
:1004C0000800B70B08003B30211F40308C22AA0ADD
:1004D0001E30B7000800B70B080096225030B70056
:1004E000AA0A0800B70B08009B22AA01211B2113AE
:1004F000A11BA11308008C229A01200005309C004A
:100500002000911027001111121121000C112C0054
:10051000C030930020000800FF0020009B00031063
:100520007F0C2C0092009101200008002C0040302C
:1005300093002000080021000C152C0000309300CF
:1005400020001C1120000800201D0800AD08031D1C
:10055000AE2AAE08031DAE2AB9010800201C08000F
:10056000B90A39081E3C031D0800AD01AE01BA01ED
:02057000080081
:1005E0000B0083289728AE28182934295029692917
:1005F00074297A2988299829C029D2290B00322AFE
:100600003A2A412A4F2A0B00592A612A6B2A722A58
:0207FE000034C5
:020000040001F9
:02000E00043DAF
:02001000FF1FD0
:00000001FF
